:020000040800F2
:100000001004002065010008870C0008A10B0008FF
:10001000850C000871020008410D00080000000076
:100020000000000000000000000000008B0C000831
:100030007302000800000000890C00088D0C000805
:100040007F0100087F0100087F0100087F01000890
:100050007F0100087F0100087F0100087F01000880
:100060007F0100087F0100087F0100087F01000870
:100070007F0100087F0100087F0100087F01000860
:100080007F0100087F0100087F0100087F01000850
:100090007F0100087F0100087F0100087F01000840
:1000A0007F0100087F0100087F0100087F01000830
:1000B0007F0100087F0100087F0100087F01000820
:1000C0007F0100087F0100087F0100087F01000810
:1000D0007F0100087F0100087F0100087F01000800
:1000E0007F0100087F0100087F0100080000000078
:1000F0000000000000000000000000000000000000
:1001000000000000000000007F0100087F010008DF
:100110007F0100087F0100087F0100087F010008BF
:100120007F0100087F0100087F0100087F010008AF
:100130007F0100087F0100087F0100087F0100089F
:100140007F0100087F0100087F0100087F0100088F
:10015000DFF80CD000F07AF800480047810D000865
:10016000100400200648804706480047FEE7FEE7E7
:10017000FEE7FEE7FEE7FEE7FEE7FEE7FEE7FEE757
:10018000ED0C0008510100082DE9F05F0546002044
:1001900092469B4688460646814640241BE02846F8
:1001A00041464746224600F020F853465A46C01AB8
:1001B000914110D311461846224600F038F82D1A06
:1001C00067EB01084F4622460120002100F02FF87E
:1001D00017EB00094E41201EA4F10104DFDC484664
:1001E00031462A464346BDE8F09F202A04DB203AE8
:1001F00021FA02F00021704721FA02F3D040C2F147
:1002000020029140084319467047D2B201E000F83D
:10021000012B491EFBD270470022F6E710B51346AA
:100220000A4604461946FFF7F0FF204610BD202A73
:1002300004DB203A00FA02F1002070479140C2F13D
:10024000200320FA03F3194390407047064C074DF2
:1002500006E0E06840F0010394E807009847103496
:10026000AC42F6D3FFF778FF400E0008600E00089E
:10027000FEE7704770B5044600F008F90546601CBB
:1002800002D004480078044400F000F9401BA0426A
:10029000FAD370BD000000202DE9F84FDFF8B891C7
:1002A000002409F1040A0AF1040B23460F270BF17D
:1002B000040EC9E00125A5402A40AA427DD1674E1F
:1002C000D1F804C0ACEB0608B44532D014DCBCF164
:1002D000030F3AD009DCBCF1000F2AD0BCF1010FAA
:1002E0001CD0BCF1020F31D11DE0BCF1110F17D0B1
:1002F000BCF1120F2AD119E0B8F5881F19D006DC1D
:10030000B8F5803F15D0B8F5801F1FD111E0B8F5C2
:10031000001F0ED0B8F5041F18D10AE0CB6815E015
:10032000CB681B1D12E0CB6808330FE0CB680C33A1
:100330000CE08B682BB1012B4FF0080303D0456113
:1003400004E0042302E0056100E00023FF2A01D855
:10035000064601E000F104064FEA840501D9A5F143
:100360002005D6F8008007FA05FC28EA0C0803FAF5
:1003700005F548EA0508C6F800804D68ED0062D52D
:10038000374DAE6946F00106AE61AD6924F0030653
:1003900005F001050095334D06EB050CDCF808501F
:1003A000A607360F07FA06F825EA0805DFF8B88031
:1003B000404503D14FF0000817E044E0DFF8AC807F
:1003C000404502D14FF001080FE0DFF8A48040451E
:1003D00002D14FF0020808E0DFF89880404502D1D2
:1003E0004FF0030801E04FF0040808FA06F848EA65
:1003F0000508CCF808804D68D9F80060ED034D463B
:1004000001D5164300E096432E604D68DAF800608F
:10041000AD03554601D5164300E096432E604D6866
:10042000DBF80060ED025D4601D5164300E096431F
:100430002E604D68DEF80060AD02754601D51643AA
:1004400000E096432E60641C0D682A46E5407FF468
:1004500031AFBDE8F88F000000040140000011102A
:10046000001002400000014000080140000C014063
:1004700000100140001401408068084000D00120B5
:1004800070470AB1016170470904FBE701488068C1
:100490007047000000000020024881680278114483
:1004A0008160704700000020074810B5016841F0E6
:1004B00010010160032000F067F8002000F006F84A
:1004C00000F024F8002010BD0020024070B50D4D52
:1004D00004464FF47A712878B1FBF0F00A490968B4
:1004E000B1FBF0F000F048FB48B9102C07D2002215
:1004F0002146501E00F028F800206C6070BD0120DD
:1005000070BD0000000000200C0000200C4808B561
:10051000816941F001018161816901F0010100916E
:10052000C16941F08051C161C06900F08050009004
:100530000448416821F0E06141F00071416008BD6C
:100540000010024000000140F0B40E4B1B680C4646
:10055000C3F30223C3F10705042D00D90425191D97
:10056000072901D2002300E0DB1E012606FA05F16F
:10057000491E214099409E40761E16403143F0BCF2
:1005800000F0DFBB0CED00E0064900F00702086850
:100590004FF6FF03184040EA0220034A1043086068
:1005A000704700000CED00E00000FA052DE9F0476F
:1005B0000F46050061D0434E306800F00700B84296
:1005C00009D2306820F0070038433060306800F00E
:1005D0000700B84251D128683B4C810712D540072B
:1005E00003D5606840F4E06060602878000703D5B8
:1005F000606840F4605060606068A96820F0F000B6
:10060000084360602878C00728D06868012810D0A7
:100610002168022810D0890700292EDA616821F0AC
:10062000030101436160FFF731FF804641F28839E1
:100630000DE021688903EFE78901EDE7FFF726FF69
:10064000A0EB0801494502D90320BDE8F0876068A6
:10065000696800F00C00B0EB810FEFD1306800F05A
:100660000700B8420BD9306820F0070038433060EB
:10067000306800F00700B84201D00120E5E7287893
:10068000400705D56068E96820F4E06008436060D1
:100690002878000706D56068296920F4605040EA90
:1006A000C100606000F018F86168084AC1F30311E6
:1006B000515CC8400649086006480068FFF706FF1D
:1006C0000020C2E70020024000100240300E000867
:1006D0000C00002004000020F0B523A289B00FCA4E
:1006E00004AC84E80F0024A10FC98DE80F0026494F
:1006F0004A68264802F00C03042B2FD0082B2DD17A
:1007000004A8C2F38343C45CD00329D5C86A00F0AF
:100710000F001DF80020C86AC00316D5C86AC96A50
:10072000C0F30310C1F30321401C891CA0FB02236A
:10073000A1FB0416154F0025A1FB070C06FB07C6FD
:1007400001FB0561FFF720FD03E010486043B0FBAB
:10075000F2F09DF81D10A14200D1400809B0F0BD93
:100760000B486043FAE7000000000405060708098B
:1007700000000000000D0000010203040506070848
:10078000090A0B0C0D0E0F100010024000127A0027
:1007900000093D002DE9F84F040070D02078F14D9C
:1007A000C00749D06868C0F38100012807D0686895
:1007B000C0F38100022809D16868C00306D5286803
:1007C000800339D5A0680028E7D035E0A068B0F5EF
:1007D000803F0BD010B1B0F5A02F11D0286820F4C5
:1007E00080302860286820F4802002E0286840F4E7
:1007F00080302860A06890B1FFF748FE06460AE006
:10080000286840F480202860F0E700BFFFF73EFE34
:10081000801B642876D828688003F7D50CE0FFF7A2
:1008200035FE064605E000BFFFF730FE801B64285A
:10083000F0D828688003F7D42078CB4E80074FF09B
:1008400001094FF000073AD5686810F00C0F07D087
:100850006868C0F38100022809D16868C00306D423
:100860002868800715D56069012808D111E0606902
:10087000B8B1C6F80090FFF709FE804606E042E1F5
:10088000FFF704FEA0EB08000228C3D82868800701
:10089000F6D52868A16920F0F80040EAC100286078
:1008A0000DE03760FFF7F2FD804605E0FFF7EEFD53
:1008B000A0EB08000228ADD828688007F6D420787D
:1008C00000072ED5A948E169E9B1C0F80090FFF70B
:1008D000DDFD804606E000BFFFF7D8FDA0EB080075
:1008E000022897D8686A8007F6D5A1484FF4FA51D4
:1008F0000068B0FBF1F0009000BF0098411E00912D
:10090000FAD20EE0B0E00760FFF7C0FD804605E0D8
:10091000FFF7BCFDA0EB0800022889D8686A8007B1
:10092000F6D42078400763D5E8694FF00008C0008E
:1009300009D4E86940F08050E861E8694FF00108A7
:1009400000F0805000908B480168C90512D40168FE
:10095000834641F480710160FFF798FD824605E00F
:10096000FFF794FDA0EB0A0064287DD8DBF80000B7
:10097000C005F5D5206901280AD008B1052813D093
:10098000286A20F001002862286A20F0040002E0B2
:10099000286A40F001002862206941F2883B98B142
:1009A000FFF774FD82460BE0286A40F004002862DD
:1009B000EEE700BFFFF76AFDA0EB0A01594553D8E7
:1009C000286A8007F6D50CE0FFF760FD824605E057
:1009D000FFF75CFDA0EB0A01594545D8286A80075E
:1009E000F6D4B8F1000F03D0E86920F08050E86138
:1009F000E06AD0B36968C90307D56968C1F38101AA
:100A0000022902D1E96AC9037DD4022808D0E86A24
:100A100020F48030E862B766FFF738FD80463BE09F
:100A20002868C00005D5E86A616B00F0F0008842D4
:100A300069D1B766FFF72AFD804605E0FFF726FD7E
:100A4000A0EB0800642874D828680001F6D4E86A8E
:100A5000616B20F0F0000843E862E86A216B20F443
:100A600070600843E86201E063E018E0C6F868904F
:100A7000FFF70CFD804605E0FFF708FDA0EB08003E
:100A8000642856D828680001F6D508E0FFF7FEFC78
:100A9000A0EB080064284CD828680001F6D4206A2E
:100AA00090B36968C1F38101022949D002283766F1
:100AB00003D0FFF7EBFC04463EE0FFF7E7FC0746F8
:100AC00005E000BFFFF7E2FCC01B022831D8286810
:100AD0008001F7D4606AB0F5803F09D1E86A6168A7
:100AE0000843E862E86AE16820F00F000843E86222
:100AF000D4E909010843696821F474110843686066
:100B0000C6F8609001E028E029E0FFF7BFFC04464A
:100B100005E000BFFFF7BAFC001B022809D82868CF
:100B20008001F7D51BE000BFFFF7B0FC001B0228D7
:100B300002D90320BDE8F88F28688001F4D40EE0C4
:100B40000128F7D06868626A00F48031914204D1CC
:100B5000A16A00F47010884201D00120EAE7002069
:100B6000E8E70000001002400000424280044242D8
:100B70000C0000200070004010B5401EB0F1807FD6
:100B800001D3012010BD4FF0E02460610F216017F8
:100B900000F0D7F80020A06107202061002010BDE0
:100BA000FEE700002DE9F04385B0002430480094B2
:100BB000019402940394816941F01001816181697B
:100BC00001F010010491816941F0040181618169A2
:100BD00001F004010491816941F020018161816982
:100BE00001F020010491816941F00801816180696F
:100BF000204F00F00800049000221F213846FFF724
:100C000040FCDFF874800022FF214046FFF739FCEA
:100C1000DFF86890002218214846FFF732FC1F20B9
:100C20000126CDE90006022569463846CDE9024590
:100C3000FFF732FB40F271208DE831006946104821
:100C4000FFF72AFBFF20CDE9000669464046CDE9C3
:100C50000245FFF721FB1820CDE90006694648460A
:100C6000CDE90245FFF718FB05B0BDE8F0830000B1
:100C7000001002400010014000140140000C01402F
:100C800000080140FEE7704770477047FFF704BC5B
:100C900070B594B038216846FFF7BEFA14210EA84B
:100CA000FFF7BAFA012500242804CDE90204022640
:100CB000CDE908600095059501944FF4E010CDE969
:100CC0000A046846FFF766FD0F20CDE90E06A8026C
:100CD000CDE9104002210EA81294FFF767FC0248EC
:100CE000056714B070BD0000000042421048016862
:100CF00041F00101016041680E4A11404160016804
:100D00000D4A11400160016821F4802101604168B1
:100D100021F4FE014160016821F0A05101604FF40F
:100D20007F0181600021C1620449C00308607047EF
:100D3000001002400000FFF0FFFFF6FE08ED00E0AB
:100D4000FEE70907090E002804DB00F1E02080F827
:100D50000014704700F00F0000F1E02080F8141D2F
:100D6000704702E008C8121F08C1002AFAD1704774
:100D70007047002001E001C1121F002AFBD170471B
:100D8000FFF792FBFFF784FFFFF70CFF0024254FCE
:100D9000DFF89490DFF894A0254626464FF01F0810
:100DA0004FF4FA7B20213846FFF766FB18B1102C70
:100DB00024D2641C06E040213846FFF75DFB18B1E1
:100DC000E4B1641EE4B219E04FF400713846FFF755
:100DD00053FB18B1102D11D26D1C06E010213846BE
:100DE000FFF74AFB18B14DB16D1EEDB206E00121CF
:100DF0003846FFF741FB08B16019C6B2B6FBF8F1FF
:100E000004F00F0405F00F0508FB116044EA051219
:100E1000C9F80020CAF80C005846FFF72BFA002644
:100E2000C0E70000000801400C1401400010014020
:100E3000000000000000000001020304060708098A
:100E4000600E00080000002010000000620D000885
:100E5000700E00081000002000040000720D000851
:100E60000100000010000000000000000024F40059
:04000005080001519D
:00000001FF
